{
  "_format": "hh-sol-artifact-1",
  "contractName": "Create",
  "sourceName": "contracts/votingContract.sol",
  "abi": [
    {
      "inputs": [],
      "stateMutability": "nonpayable",
      "type": "constructor"
    },
    {
      "anonymous": false,
      "inputs": [
        {
          "indexed": true,
          "internalType": "uint256",
          "name": "candidateId",
          "type": "uint256"
        },
        {
          "indexed": false,
          "internalType": "uint256",
          "name": "age",
          "type": "uint256"
        },
        {
          "indexed": false,
          "internalType": "string",
          "name": "name",
          "type": "string"
        },
        {
          "indexed": false,
          "internalType": "string",
          "name": "image",
          "type": "string"
        },
        {
          "indexed": false,
          "internalType": "uint256",
          "name": "voteCount",
          "type": "uint256"
        },
        {
          "indexed": false,
          "internalType": "address",
          "name": "_address",
          "type": "address"
        },
        {
          "indexed": false,
          "internalType": "string",
          "name": "ifps",
          "type": "string"
        }
      ],
      "name": "CandidateCreate",
      "type": "event"
    },
    {
      "anonymous": false,
      "inputs": [
        {
          "indexed": true,
          "internalType": "uint256",
          "name": "voter_voterId",
          "type": "uint256"
        },
        {
          "indexed": false,
          "internalType": "string",
          "name": "voter_name",
          "type": "string"
        },
        {
          "indexed": false,
          "internalType": "string",
          "name": "voter_image",
          "type": "string"
        },
        {
          "indexed": false,
          "internalType": "address",
          "name": "voter_address",
          "type": "address"
        },
        {
          "indexed": false,
          "internalType": "uint256",
          "name": "voter_allowed",
          "type": "uint256"
        },
        {
          "indexed": false,
          "internalType": "bool",
          "name": "voter_voted",
          "type": "bool"
        },
        {
          "indexed": false,
          "internalType": "uint256",
          "name": "voter_vote",
          "type": "uint256"
        },
        {
          "indexed": false,
          "internalType": "string",
          "name": "voter_ifps",
          "type": "string"
        }
      ],
      "name": "VoterCreate",
      "type": "event"
    },
    {
      "inputs": [],
      "name": "_candidateId",
      "outputs": [
        {
          "internalType": "uint256",
          "name": "_value",
          "type": "uint256"
        }
      ],
      "stateMutability": "view",
      "type": "function"
    },
    {
      "inputs": [],
      "name": "_voterId",
      "outputs": [
        {
          "internalType": "uint256",
          "name": "_value",
          "type": "uint256"
        }
      ],
      "stateMutability": "view",
      "type": "function"
    },
    {
      "inputs": [
        {
          "internalType": "uint256",
          "name": "",
          "type": "uint256"
        }
      ],
      "name": "candidateAddress",
      "outputs": [
        {
          "internalType": "address",
          "name": "",
          "type": "address"
        }
      ],
      "stateMutability": "view",
      "type": "function"
    },
    {
      "inputs": [
        {
          "internalType": "address",
          "name": "",
          "type": "address"
        }
      ],
      "name": "candidates",
      "outputs": [
        {
          "internalType": "uint256",
          "name": "candidateId",
          "type": "uint256"
        },
        {
          "internalType": "uint256",
          "name": "age",
          "type": "uint256"
        },
        {
          "internalType": "string",
          "name": "name",
          "type": "string"
        },
        {
          "internalType": "string",
          "name": "image",
          "type": "string"
        },
        {
          "internalType": "uint256",
          "name": "voteCount",
          "type": "uint256"
        },
        {
          "internalType": "address",
          "name": "_address",
          "type": "address"
        },
        {
          "internalType": "string",
          "name": "ifps",
          "type": "string"
        }
      ],
      "stateMutability": "view",
      "type": "function"
    },
    {
      "inputs": [],
      "name": "getCandidate",
      "outputs": [
        {
          "internalType": "address[]",
          "name": "",
          "type": "address[]"
        }
      ],
      "stateMutability": "view",
      "type": "function"
    },
    {
      "inputs": [
        {
          "internalType": "address",
          "name": "_address",
          "type": "address"
        }
      ],
      "name": "getCandidateData",
      "outputs": [
        {
          "internalType": "uint256",
          "name": "",
          "type": "uint256"
        },
        {
          "internalType": "uint256",
          "name": "",
          "type": "uint256"
        },
        {
          "internalType": "string",
          "name": "",
          "type": "string"
        },
        {
          "internalType": "string",
          "name": "",
          "type": "string"
        },
        {
          "internalType": "uint256",
          "name": "",
          "type": "uint256"
        },
        {
          "internalType": "address",
          "name": "",
          "type": "address"
        },
        {
          "internalType": "string",
          "name": "",
          "type": "string"
        }
      ],
      "stateMutability": "view",
      "type": "function"
    },
    {
      "inputs": [],
      "name": "getCandidateLength",
      "outputs": [
        {
          "internalType": "uint256",
          "name": "",
          "type": "uint256"
        }
      ],
      "stateMutability": "view",
      "type": "function"
    },
    {
      "inputs": [],
      "name": "getVotedVoterList",
      "outputs": [
        {
          "internalType": "address[]",
          "name": "",
          "type": "address[]"
        }
      ],
      "stateMutability": "view",
      "type": "function"
    },
    {
      "inputs": [
        {
          "internalType": "address",
          "name": "_address",
          "type": "address"
        }
      ],
      "name": "getVoterData",
      "outputs": [
        {
          "internalType": "uint256",
          "name": "",
          "type": "uint256"
        },
        {
          "internalType": "string",
          "name": "",
          "type": "string"
        },
        {
          "internalType": "string",
          "name": "",
          "type": "string"
        },
        {
          "internalType": "address",
          "name": "",
          "type": "address"
        },
        {
          "internalType": "string",
          "name": "",
          "type": "string"
        },
        {
          "internalType": "uint256",
          "name": "",
          "type": "uint256"
        },
        {
          "internalType": "bool",
          "name": "",
          "type": "bool"
        }
      ],
      "stateMutability": "view",
      "type": "function"
    },
    {
      "inputs": [],
      "name": "getVoterLength",
      "outputs": [
        {
          "internalType": "uint256",
          "name": "",
          "type": "uint256"
        }
      ],
      "stateMutability": "view",
      "type": "function"
    },
    {
      "inputs": [],
      "name": "getVoterList",
      "outputs": [
        {
          "internalType": "address[]",
          "name": "",
          "type": "address[]"
        }
      ],
      "stateMutability": "view",
      "type": "function"
    },
    {
      "inputs": [
        {
          "internalType": "address",
          "name": "_address",
          "type": "address"
        },
        {
          "internalType": "uint256",
          "name": "_age",
          "type": "uint256"
        },
        {
          "internalType": "string",
          "name": "_name",
          "type": "string"
        },
        {
          "internalType": "string",
          "name": "_image",
          "type": "string"
        },
        {
          "internalType": "string",
          "name": "_ifps",
          "type": "string"
        }
      ],
      "name": "setCandidate",
      "outputs": [],
      "stateMutability": "nonpayable",
      "type": "function"
    },
    {
      "inputs": [
        {
          "internalType": "address",
          "name": "_candidateAddress",
          "type": "address"
        },
        {
          "internalType": "uint256",
          "name": "_candidateVoteId",
          "type": "uint256"
        }
      ],
      "name": "vote",
      "outputs": [],
      "stateMutability": "nonpayable",
      "type": "function"
    },
    {
      "inputs": [
        {
          "internalType": "uint256",
          "name": "",
          "type": "uint256"
        }
      ],
      "name": "votedVoters",
      "outputs": [
        {
          "internalType": "address",
          "name": "",
          "type": "address"
        }
      ],
      "stateMutability": "view",
      "type": "function"
    },
    {
      "inputs": [
        {
          "internalType": "address",
          "name": "_address",
          "type": "address"
        },
        {
          "internalType": "string",
          "name": "_name",
          "type": "string"
        },
        {
          "internalType": "string",
          "name": "_image",
          "type": "string"
        },
        {
          "internalType": "string",
          "name": "_ifps",
          "type": "string"
        }
      ],
      "name": "voterRight",
      "outputs": [],
      "stateMutability": "nonpayable",
      "type": "function"
    },
    {
      "inputs": [
        {
          "internalType": "address",
          "name": "",
          "type": "address"
        }
      ],
      "name": "voters",
      "outputs": [
        {
          "internalType": "uint256",
          "name": "voter_voterId",
          "type": "uint256"
        },
        {
          "internalType": "string",
          "name": "voter_name",
          "type": "string"
        },
        {
          "internalType": "string",
          "name": "voter_image",
          "type": "string"
        },
        {
          "internalType": "address",
          "name": "voter_address",
          "type": "address"
        },
        {
          "internalType": "uint256",
          "name": "voter_allowed",
          "type": "uint256"
        },
        {
          "internalType": "bool",
          "name": "voter_voted",
          "type": "bool"
        },
        {
          "internalType": "uint256",
          "name": "voter_vote",
          "type": "uint256"
        },
        {
          "internalType": "string",
          "name": "voter_ifps",
          "type": "string"
        }
      ],
      "stateMutability": "view",
      "type": "function"
    },
    {
      "inputs": [
        {
          "internalType": "uint256",
          "name": "",
          "type": "uint256"
        }
      ],
      "name": "votersAddress",
      "outputs": [
        {
          "internalType": "address",
          "name": "",
          "type": "address"
        }
      ],
      "stateMutability": "view",
      "type": "function"
    },
    {
      "inputs": [],
      "name": "votingOrganiser",
      "outputs": [
        {
          "internalType": "address",
          "name": "",
          "type": "address"
        }
      ],
      "stateMutability": "view",
      "type": "function"
    }
  ],
  "bytecode": "0x6080604052348015600f57600080fd5b5033600260006101000a81548173ffffffffffffffffffffffffffffffffffffffff021916908373ffffffffffffffffffffffffffffffffffffffff160217905550612735806100606000396000f3fe608060405234801561001057600080fd5b50600436106101165760003560e01c80638e945685116100a2578063b28d92ae11610071578063b28d92ae14610334578063b9be315214610352578063cd948ab714610370578063f4abecd21461038e578063f7522a83146103aa57610116565b80638e9456851461028b5780638fb4cd80146102a9578063a3ec138d146102df578063a73889671461031657610116565b806343242daa116100e957806343242daa146101bb5780635f74bbde146101eb57806370218b85146102075780637831ffb3146102255780638ab66a901461025557610116565b80630361419e1461011b57806305ad45a4146101375780632a466ac7146101555780633a88251a1461018b575b600080fd5b61013560048036038101906101309190611a99565b6103c8565b005b61013f610676565b60405161014c9190611b6d565b60405180910390f35b61016f600480360381019061016a9190611b88565b610683565b6040516101829796959493929190611c43565b60405180910390f35b6101a560048036038101906101a09190611cf3565b610a3d565b6040516101b29190611d20565b60405180910390f35b6101d560048036038101906101d09190611cf3565b610a7c565b6040516101e29190611d20565b60405180910390f35b61020560048036038101906102009190611d3b565b610abb565b005b61020f610c88565b60405161021c9190611e39565b60405180910390f35b61023f600480360381019061023a9190611cf3565b610d16565b60405161024c9190611d20565b60405180910390f35b61026f600480360381019061026a9190611b88565b610d55565b6040516102829796959493929190611c43565b60405180910390f35b610293610f4f565b6040516102a09190611e39565b60405180910390f35b6102c360048036038101906102be9190611b88565b610fdd565b6040516102d69796959493929190611e76565b60405180910390f35b6102f960048036038101906102f49190611b88565b6113a5565b60405161030d989796959493929190611efa565b60405180910390f35b61031e6115b2565b60405161032b9190611b6d565b60405180910390f35b61033c6115be565b6040516103499190611e39565b60405180910390f35b61035a61164c565b6040516103679190611b6d565b60405180910390f35b610378611658565b6040516103859190611d20565b60405180910390f35b6103a860048036038101906103a39190611f8d565b61167e565b005b6103b26118b0565b6040516103bf9190611b6d565b60405180910390f35b600260009054906101000a900473ffffffffffffffffffffffffffffffffffffffff1673ffffffffffffffffffffffffffffffffffffffff163373ffffffffffffffffffffffffffffffffffffffff1614610458576040517f08c379a000000000000000000000000000000000000000000000000000000000815260040161044f906120ce565b60405180910390fd5b61046260006118bd565b600061046e60006118d3565b90506000600760008773ffffffffffffffffffffffffffffffffffffffff1673ffffffffffffffffffffffffffffffffffffffff168152602001908152602001600020905060008160040154146104fa576040517f08c379a00000000000000000000000000000000000000000000000000000000081526004016104f19061213a565b60405180910390fd5b600181600401819055508181600001819055508481600101908161051e9190612366565b50838160020190816105309190612366565b50858160030160006101000a81548173ffffffffffffffffffffffffffffffffffffffff021916908373ffffffffffffffffffffffffffffffffffffffff16021790555060008160050160006101000a81548160ff0219169083151502179055506103e88160060181905550828160070190816105ad9190612366565b506006869080600181540180825580915050600190039060005260206000200160009091909190916101000a81548173ffffffffffffffffffffffffffffffffffffffff021916908373ffffffffffffffffffffffffffffffffffffffff160217905550817f0d1b980df89c1a3954567752ee1e92bdf546b205af1cc94b471ae6e71b8f859c86868985600401548660050160009054906101000a900460ff1687600601548a6040516106669796959493929190612438565b60405180910390a2505050505050565b6000600680549050905090565b6000806060806000806060600460008973ffffffffffffffffffffffffffffffffffffffff1673ffffffffffffffffffffffffffffffffffffffff16815260200190815260200160002060000154600460008a73ffffffffffffffffffffffffffffffffffffffff1673ffffffffffffffffffffffffffffffffffffffff16815260200190815260200160002060010154600460008b73ffffffffffffffffffffffffffffffffffffffff1673ffffffffffffffffffffffffffffffffffffffff168152602001908152602001600020600201600460008c73ffffffffffffffffffffffffffffffffffffffff1673ffffffffffffffffffffffffffffffffffffffff168152602001908152602001600020600301600460008d73ffffffffffffffffffffffffffffffffffffffff1673ffffffffffffffffffffffffffffffffffffffff16815260200190815260200160002060040154600460008e73ffffffffffffffffffffffffffffffffffffffff1673ffffffffffffffffffffffffffffffffffffffff16815260200190815260200160002060050160009054906101000a900473ffffffffffffffffffffffffffffffffffffffff16600460008f73ffffffffffffffffffffffffffffffffffffffff1673ffffffffffffffffffffffffffffffffffffffff16815260200190815260200160002060060184805461088c90612189565b80601f01602080910402602001604051908101604052809291908181526020018280546108b890612189565b80156109055780601f106108da57610100808354040283529160200191610905565b820191906000526020600020905b8154815290600101906020018083116108e857829003601f168201915b5050505050945083805461091890612189565b80601f016020809104026020016040519081016040528092919081815260200182805461094490612189565b80156109915780601f1061096657610100808354040283529160200191610991565b820191906000526020600020905b81548152906001019060200180831161097457829003601f168201915b505050505093508080546109a490612189565b80601f01602080910402602001604051908101604052809291908181526020018280546109d090612189565b8015610a1d5780601f106109f257610100808354040283529160200191610a1d565b820191906000526020600020905b815481529060010190602001808311610a0057829003601f168201915b505050505090509650965096509650965096509650919395979092949650565b60038181548110610a4d57600080fd5b906000526020600020016000915054906101000a900473ffffffffffffffffffffffffffffffffffffffff1681565b60068181548110610a8c57600080fd5b906000526020600020016000915054906101000a900473ffffffffffffffffffffffffffffffffffffffff1681565b6000600760003373ffffffffffffffffffffffffffffffffffffffff1673ffffffffffffffffffffffffffffffffffffffff16815260200190815260200160002090506000816004015403610b45576040517f08c379a0000000000000000000000000000000000000000000000000000000008152600401610b3c90612508565b60405180910390fd5b600015158160050160009054906101000a900460ff16151514610b9d576040517f08c379a0000000000000000000000000000000000000000000000000000000008152600401610b9490612574565b60405180910390fd5b60018160050160006101000a81548160ff0219169083151502179055508181600601819055506005339080600181540180825580915050600190039060005260206000200160009091909190916101000a81548173ffffffffffffffffffffffffffffffffffffffff021916908373ffffffffffffffffffffffffffffffffffffffff1602179055508060040154600460008573ffffffffffffffffffffffffffffffffffffffff1673ffffffffffffffffffffffffffffffffffffffff1681526020019081526020016000206004016000828254610c7c91906125c3565b92505081905550505050565b60606003805480602002602001604051908101604052809291908181526020018280548015610d0c57602002820191906000526020600020905b8160009054906101000a900473ffffffffffffffffffffffffffffffffffffffff1673ffffffffffffffffffffffffffffffffffffffff1681526020019060010190808311610cc2575b5050505050905090565b60058181548110610d2657600080fd5b906000526020600020016000915054906101000a900473ffffffffffffffffffffffffffffffffffffffff1681565b6004602052806000526040600020600091509050806000015490806001015490806002018054610d8490612189565b80601f0160208091040260200160405190810160405280929190818152602001828054610db090612189565b8015610dfd5780601f10610dd257610100808354040283529160200191610dfd565b820191906000526020600020905b815481529060010190602001808311610de057829003601f168201915b505050505090806003018054610e1290612189565b80601f0160208091040260200160405190810160405280929190818152602001828054610e3e90612189565b8015610e8b5780601f10610e6057610100808354040283529160200191610e8b565b820191906000526020600020905b815481529060010190602001808311610e6e57829003601f168201915b5050505050908060040154908060050160009054906101000a900473ffffffffffffffffffffffffffffffffffffffff1690806006018054610ecc90612189565b80601f0160208091040260200160405190810160405280929190818152602001828054610ef890612189565b8015610f455780601f10610f1a57610100808354040283529160200191610f45565b820191906000526020600020905b815481529060010190602001808311610f2857829003601f168201915b5050505050905087565b60606005805480602002602001604051908101604052809291908181526020018280548015610fd357602002820191906000526020600020905b8160009054906101000a900473ffffffffffffffffffffffffffffffffffffffff1673ffffffffffffffffffffffffffffffffffffffff1681526020019060010190808311610f89575b5050505050905090565b600060608060006060600080600760008973ffffffffffffffffffffffffffffffffffffffff1673ffffffffffffffffffffffffffffffffffffffff16815260200190815260200160002060000154600760008a73ffffffffffffffffffffffffffffffffffffffff1673ffffffffffffffffffffffffffffffffffffffff168152602001908152602001600020600101600760008b73ffffffffffffffffffffffffffffffffffffffff1673ffffffffffffffffffffffffffffffffffffffff168152602001908152602001600020600201600760008c73ffffffffffffffffffffffffffffffffffffffff1673ffffffffffffffffffffffffffffffffffffffff16815260200190815260200160002060030160009054906101000a900473ffffffffffffffffffffffffffffffffffffffff16600760008d73ffffffffffffffffffffffffffffffffffffffff1673ffffffffffffffffffffffffffffffffffffffff168152602001908152602001600020600701600760008e73ffffffffffffffffffffffffffffffffffffffff1673ffffffffffffffffffffffffffffffffffffffff16815260200190815260200160002060040154600760008f73ffffffffffffffffffffffffffffffffffffffff1673ffffffffffffffffffffffffffffffffffffffff16815260200190815260200160002060050160009054906101000a900460ff168580546111f490612189565b80601f016020809104026020016040519081016040528092919081815260200182805461122090612189565b801561126d5780601f106112425761010080835404028352916020019161126d565b820191906000526020600020905b81548152906001019060200180831161125057829003601f168201915b5050505050955084805461128090612189565b80601f01602080910402602001604051908101604052809291908181526020018280546112ac90612189565b80156112f95780601f106112ce576101008083540402835291602001916112f9565b820191906000526020600020905b8154815290600101906020018083116112dc57829003601f168201915b5050505050945082805461130c90612189565b80601f016020809104026020016040519081016040528092919081815260200182805461133890612189565b80156113855780601f1061135a57610100808354040283529160200191611385565b820191906000526020600020905b81548152906001019060200180831161136857829003601f168201915b505050505092509650965096509650965096509650919395979092949650565b60076020528060005260406000206000915090508060000154908060010180546113ce90612189565b80601f01602080910402602001604051908101604052809291908181526020018280546113fa90612189565b80156114475780601f1061141c57610100808354040283529160200191611447565b820191906000526020600020905b81548152906001019060200180831161142a57829003601f168201915b50505050509080600201805461145c90612189565b80601f016020809104026020016040519081016040528092919081815260200182805461148890612189565b80156114d55780601f106114aa576101008083540402835291602001916114d5565b820191906000526020600020905b8154815290600101906020018083116114b857829003601f168201915b5050505050908060030160009054906101000a900473ffffffffffffffffffffffffffffffffffffffff16908060040154908060050160009054906101000a900460ff169080600601549080600701805461152f90612189565b80601f016020809104026020016040519081016040528092919081815260200182805461155b90612189565b80156115a85780601f1061157d576101008083540402835291602001916115a8565b820191906000526020600020905b81548152906001019060200180831161158b57829003601f168201915b5050505050905088565b60018060000154905081565b6060600680548060200260200160405190810160405280929190818152602001828054801561164257602002820191906000526020600020905b8160009054906101000a900473ffffffffffffffffffffffffffffffffffffffff1673ffffffffffffffffffffffffffffffffffffffff16815260200190600101908083116115f8575b5050505050905090565b60008060000154905081565b600260009054906101000a900473ffffffffffffffffffffffffffffffffffffffff1681565b600260009054906101000a900473ffffffffffffffffffffffffffffffffffffffff1673ffffffffffffffffffffffffffffffffffffffff163373ffffffffffffffffffffffffffffffffffffffff161461170e576040517f08c379a000000000000000000000000000000000000000000000000000000000815260040161170590612669565b60405180910390fd5b61171860016118bd565b600061172460016118d3565b90506000600460008873ffffffffffffffffffffffffffffffffffffffff1673ffffffffffffffffffffffffffffffffffffffff16815260200190815260200160002090508181600001819055508581600101819055508481600201908161178c9190612366565b508381600301908161179e9190612366565b5060008160040181905550868160050160006101000a81548173ffffffffffffffffffffffffffffffffffffffff021916908373ffffffffffffffffffffffffffffffffffffffff160217905550828160060190816117fd9190612366565b506003879080600181540180825580915050600190039060005260206000200160009091909190916101000a81548173ffffffffffffffffffffffffffffffffffffffff021916908373ffffffffffffffffffffffffffffffffffffffff160217905550817fa0bb2859e614d6df5a180bd5c06e70c2f058288ebf559a5751e8865cda8654c987878785600401548c8960405161189f96959493929190612689565b60405180910390a250505050505050565b6000600380549050905090565b6001816000016000828254019250508190555050565b600081600001549050919050565b6000604051905090565b600080fd5b600080fd5b600073ffffffffffffffffffffffffffffffffffffffff82169050919050565b6000611920826118f5565b9050919050565b61193081611915565b811461193b57600080fd5b50565b60008135905061194d81611927565b92915050565b600080fd5b600080fd5b6000601f19601f8301169050919050565b7f4e487b7100000000000000000000000000000000000000000000000000000000600052604160045260246000fd5b6119a68261195d565b810181811067ffffffffffffffff821117156119c5576119c461196e565b5b80604052505050565b60006119d86118e1565b90506119e4828261199d565b919050565b600067ffffffffffffffff821115611a0457611a0361196e565b5b611a0d8261195d565b9050602081019050919050565b82818337600083830152505050565b6000611a3c611a37846119e9565b6119ce565b905082815260208101848484011115611a5857611a57611958565b5b611a63848285611a1a565b509392505050565b600082601f830112611a8057611a7f611953565b5b8135611a90848260208601611a29565b91505092915050565b60008060008060808587031215611ab357611ab26118eb565b5b6000611ac18782880161193e565b945050602085013567ffffffffffffffff811115611ae257611ae16118f0565b5b611aee87828801611a6b565b935050604085013567ffffffffffffffff811115611b0f57611b0e6118f0565b5b611b1b87828801611a6b565b925050606085013567ffffffffffffffff811115611b3c57611b3b6118f0565b5b611b4887828801611a6b565b91505092959194509250565b6000819050919050565b611b6781611b54565b82525050565b6000602082019050611b826000830184611b5e565b92915050565b600060208284031215611b9e57611b9d6118eb565b5b6000611bac8482850161193e565b91505092915050565b600081519050919050565b600082825260208201905092915050565b60005b83811015611bef578082015181840152602081019050611bd4565b60008484015250505050565b6000611c0682611bb5565b611c108185611bc0565b9350611c20818560208601611bd1565b611c298161195d565b840191505092915050565b611c3d81611915565b82525050565b600060e082019050611c58600083018a611b5e565b611c656020830189611b5e565b8181036040830152611c778188611bfb565b90508181036060830152611c8b8187611bfb565b9050611c9a6080830186611b5e565b611ca760a0830185611c34565b81810360c0830152611cb98184611bfb565b905098975050505050505050565b611cd081611b54565b8114611cdb57600080fd5b50565b600081359050611ced81611cc7565b92915050565b600060208284031215611d0957611d086118eb565b5b6000611d1784828501611cde565b91505092915050565b6000602082019050611d356000830184611c34565b92915050565b60008060408385031215611d5257611d516118eb565b5b6000611d608582860161193e565b9250506020611d7185828601611cde565b9150509250929050565b600081519050919050565b600082825260208201905092915050565b6000819050602082019050919050565b611db081611915565b82525050565b6000611dc28383611da7565b60208301905092915050565b6000602082019050919050565b6000611de682611d7b565b611df08185611d86565b9350611dfb83611d97565b8060005b83811015611e2c578151611e138882611db6565b9750611e1e83611dce565b925050600181019050611dff565b5085935050505092915050565b60006020820190508181036000830152611e538184611ddb565b905092915050565b60008115159050919050565b611e7081611e5b565b82525050565b600060e082019050611e8b600083018a611b5e565b8181036020830152611e9d8189611bfb565b90508181036040830152611eb18188611bfb565b9050611ec06060830187611c34565b8181036080830152611ed28186611bfb565b9050611ee160a0830185611b5e565b611eee60c0830184611e67565b98975050505050505050565b600061010082019050611f10600083018b611b5e565b8181036020830152611f22818a611bfb565b90508181036040830152611f368189611bfb565b9050611f456060830188611c34565b611f526080830187611b5e565b611f5f60a0830186611e67565b611f6c60c0830185611b5e565b81810360e0830152611f7e8184611bfb565b90509998505050505050505050565b600080600080600060a08688031215611fa957611fa86118eb565b5b6000611fb78882890161193e565b9550506020611fc888828901611cde565b945050604086013567ffffffffffffffff811115611fe957611fe86118f0565b5b611ff588828901611a6b565b935050606086013567ffffffffffffffff811115612016576120156118f0565b5b61202288828901611a6b565b925050608086013567ffffffffffffffff811115612043576120426118f0565b5b61204f88828901611a6b565b9150509295509295909350565b7f4f6e6c792074686520766f74696e67206f7267616e697365722063616e20616460008201527f6420766f74657273000000000000000000000000000000000000000000000000602082015250565b60006120b8602883611bc0565b91506120c38261205c565b604082019050919050565b600060208201905081810360008301526120e7816120ab565b9050919050565b7f566f74657220616c726561647920657869737473000000000000000000000000600082015250565b6000612124601483611bc0565b915061212f826120ee565b602082019050919050565b6000602082019050818103600083015261215381612117565b9050919050565b7f4e487b7100000000000000000000000000000000000000000000000000000000600052602260045260246000fd5b600060028204905060018216806121a157607f821691505b6020821081036121b4576121b361215a565b5b50919050565b60008190508160005260206000209050919050565b60006020601f8301049050919050565b600082821b905092915050565b60006008830261221c7fffffffffffffffffffffffffffffffffffffffffffffffffffffffffffffffff826121df565b61222686836121df565b95508019841693508086168417925050509392505050565b6000819050919050565b600061226361225e61225984611b54565b61223e565b611b54565b9050919050565b6000819050919050565b61227d83612248565b6122916122898261226a565b8484546121ec565b825550505050565b600090565b6122a6612299565b6122b1818484612274565b505050565b5b818110156122d5576122ca60008261229e565b6001810190506122b7565b5050565b601f82111561231a576122eb816121ba565b6122f4846121cf565b81016020851015612303578190505b61231761230f856121cf565b8301826122b6565b50505b505050565b600082821c905092915050565b600061233d6000198460080261231f565b1980831691505092915050565b6000612356838361232c565b9150826002028217905092915050565b61236f82611bb5565b67ffffffffffffffff8111156123885761238761196e565b5b6123928254612189565b61239d8282856122d9565b600060209050601f8311600181146123d057600084156123be578287015190505b6123c8858261234a565b865550612430565b601f1984166123de866121ba565b60005b82811015612406578489015182556001820191506020850194506020810190506123e1565b86831015612423578489015161241f601f89168261232c565b8355505b6001600288020188555050505b505050505050565b600060e0820190508181036000830152612452818a611bfb565b905081810360208301526124668189611bfb565b90506124756040830188611c34565b6124826060830187611b5e565b61248f6080830186611e67565b61249c60a0830185611b5e565b81810360c08301526124ae8184611bfb565b905098975050505050505050565b7f596f7520617265206e6f7420616c6c6f77656420746f20766f74650000000000600082015250565b60006124f2601b83611bc0565b91506124fd826124bc565b602082019050919050565b60006020820190508181036000830152612521816124e5565b9050919050565b7f596f75206861766520616c726561647920766f74656400000000000000000000600082015250565b600061255e601683611bc0565b915061256982612528565b602082019050919050565b6000602082019050818103600083015261258d81612551565b9050919050565b7f4e487b7100000000000000000000000000000000000000000000000000000000600052601160045260246000fd5b60006125ce82611b54565b91506125d983611b54565b92508282019050808211156125f1576125f0612594565b5b92915050565b7f4f6e6c792074686520766f74696e67206f7267616e697365722063616e20616460008201527f642063616e646964617465730000000000000000000000000000000000000000602082015250565b6000612653602c83611bc0565b915061265e826125f7565b604082019050919050565b6000602082019050818103600083015261268281612646565b9050919050565b600060c08201905061269e6000830189611b5e565b81810360208301526126b08188611bfb565b905081810360408301526126c48187611bfb565b90506126d36060830186611b5e565b6126e06080830185611c34565b81810360a08301526126f28184611bfb565b905097965050505050505056fea2646970667358221220972e5210a89bc7a2556cfc9299be7f8668f78d4708d0587b336c9f747bef0be364736f6c634300081c0033",
  "linkReferences": {},
  "deployedLinkReferences": {}
}