{
  "_format": "hh-sol-artifact-1",
  "contractName": "Voting",
  "sourceName": "contracts/Voting.sol",
  "abi": [
    {
      "anonymous": false,
      "inputs": [
        {
          "indexed": true,
          "internalType": "address",
          "name": "member",
          "type": "address"
        },
        {
          "indexed": false,
          "internalType": "uint256",
          "name": "joinedAt",
          "type": "uint256"
        }
      ],
      "name": "MemberJoined",
      "type": "event"
    },
    {
      "anonymous": false,
      "inputs": [
        {
          "indexed": true,
          "internalType": "address",
          "name": "owner",
          "type": "address"
        },
        {
          "indexed": true,
          "internalType": "uint256",
          "name": "voteId",
          "type": "uint256"
        },
        {
          "indexed": false,
          "internalType": "uint256",
          "name": "createdAt",
          "type": "uint256"
        },
        {
          "indexed": false,
          "internalType": "uint256",
          "name": "endTime",
          "type": "uint256"
        }
      ],
      "name": "VoteCreated",
      "type": "event"
    },
    {
      "anonymous": false,
      "inputs": [
        {
          "indexed": true,
          "internalType": "address",
          "name": "voter",
          "type": "address"
        },
        {
          "indexed": true,
          "internalType": "uint256",
          "name": "voteId",
          "type": "uint256"
        },
        {
          "indexed": true,
          "internalType": "uint256",
          "name": "option",
          "type": "uint256"
        },
        {
          "indexed": false,
          "internalType": "uint256",
          "name": "createdAt",
          "type": "uint256"
        }
      ],
      "name": "Voted",
      "type": "event"
    },
    {
      "inputs": [
        {
          "internalType": "string",
          "name": "uri",
          "type": "string"
        },
        {
          "internalType": "uint256",
          "name": "endTime",
          "type": "uint256"
        },
        {
          "internalType": "uint256",
          "name": "options",
          "type": "uint256"
        }
      ],
      "name": "createVote",
      "outputs": [],
      "stateMutability": "nonpayable",
      "type": "function"
    },
    {
      "inputs": [
        {
          "internalType": "address",
          "name": "member",
          "type": "address"
        },
        {
          "internalType": "uint256",
          "name": "voteId",
          "type": "uint256"
        }
      ],
      "name": "didVote",
      "outputs": [
        {
          "internalType": "bool",
          "name": "",
          "type": "bool"
        }
      ],
      "stateMutability": "view",
      "type": "function"
    },
    {
      "inputs": [
        {
          "internalType": "uint256",
          "name": "voteId",
          "type": "uint256"
        }
      ],
      "name": "getVote",
      "outputs": [
        {
          "internalType": "string",
          "name": "",
          "type": "string"
        },
        {
          "internalType": "address",
          "name": "",
          "type": "address"
        },
        {
          "internalType": "uint256[]",
          "name": "",
          "type": "uint256[]"
        },
        {
          "internalType": "uint256",
          "name": "",
          "type": "uint256"
        }
      ],
      "stateMutability": "view",
      "type": "function"
    },
    {
      "inputs": [],
      "name": "join",
      "outputs": [],
      "stateMutability": "nonpayable",
      "type": "function"
    },
    {
      "inputs": [
        {
          "internalType": "address",
          "name": "",
          "type": "address"
        }
      ],
      "name": "members",
      "outputs": [
        {
          "internalType": "bool",
          "name": "",
          "type": "bool"
        }
      ],
      "stateMutability": "view",
      "type": "function"
    },
    {
      "inputs": [
        {
          "internalType": "uint256",
          "name": "voteId",
          "type": "uint256"
        },
        {
          "internalType": "uint256",
          "name": "option",
          "type": "uint256"
        }
      ],
      "name": "vote",
      "outputs": [],
      "stateMutability": "nonpayable",
      "type": "function"
    }
  ],
  "bytecode": "0x6080604052348015600f57600080fd5b506117218061001f6000396000f3fe608060405234801561001057600080fd5b50600436106100625760003560e01c8063029fc3e81461006757806308ae4b0c146100835780635a55c1f0146100b3578063b384abef146100e6578063b688a36314610102578063bda088d41461010c575b600080fd5b610081600480360381019061007c9190610c38565b61013c565b005b61009d60048036038101906100989190610d05565b6103e3565b6040516100aa9190610d4d565b60405180910390f35b6100cd60048036038101906100c89190610d68565b610403565b6040516100dd9493929190610ef0565b60405180910390f35b61010060048036038101906100fb9190610f43565b610572565b005b61010a61089e565b005b61012660048036038101906101219190610f83565b6109d3565b6040516101339190610d4d565b60405180910390f35b600260003373ffffffffffffffffffffffffffffffffffffffff1673ffffffffffffffffffffffffffffffffffffffff16815260200190815260200160002060009054906101000a900460ff166101c8576040517f08c379a00000000000000000000000000000000000000000000000000000000081526004016101bf9061100f565b60405180910390fd5b6001811161020b576040517f08c379a00000000000000000000000000000000000000000000000000000000081526004016102029061107b565b60405180910390fd5b42821161024d576040517f08c379a0000000000000000000000000000000000000000000000000000000008152600401610244906110e7565b60405180910390fd5b600080549050836001600083815260200190815260200160002060000190816102769190611313565b50336001600083815260200190815260200160002060010160006101000a81548173ffffffffffffffffffffffffffffffffffffffff021916908373ffffffffffffffffffffffffffffffffffffffff1602179055508260016000838152602001908152602001600020600201819055508160016000838152602001908152602001600020600501819055508167ffffffffffffffff81111561031c5761031b610ad7565b5b60405190808252806020026020018201604052801561034a5781602001602082028036833780820191505090505b50600160008381526020019081526020016000206003019080519060200190610374929190610a3e565b50803373ffffffffffffffffffffffffffffffffffffffff167f665ef0592b007345b8682bb42a5cae81579ec1765a7939bb3ae4c4667e467f9c42866040516103be9291906113e5565b60405180910390a36000808154809291906103d89061143d565b919050555050505050565b60026020528060005260406000206000915054906101000a900460ff1681565b6060600060606000600160008681526020019081526020016000206000016001600087815260200190815260200160002060010160009054906101000a900473ffffffffffffffffffffffffffffffffffffffff1660016000888152602001908152602001600020600301600160008981526020019081526020016000206002015483805461049190611136565b80601f01602080910402602001604051908101604052809291908181526020018280546104bd90611136565b801561050a5780601f106104df5761010080835404028352916020019161050a565b820191906000526020600020905b8154815290600101906020018083116104ed57829003601f168201915b505050505093508180548060200260200160405190810160405280929190818152602001828054801561055c57602002820191906000526020600020905b815481526020019060010190808311610548575b5050505050915093509350935093509193509193565b600260003373ffffffffffffffffffffffffffffffffffffffff1673ffffffffffffffffffffffffffffffffffffffff16815260200190815260200160002060009054906101000a900460ff166105fe576040517f08c379a00000000000000000000000000000000000000000000000000000000081526004016105f59061100f565b60405180910390fd5b81816000548210610644576040517f08c379a000000000000000000000000000000000000000000000000000000000815260040161063b906114d1565b60405180910390fd5b6001600083815260200190815260200160002060050154811061069c576040517f08c379a00000000000000000000000000000000000000000000000000000000081526004016106939061153d565b60405180910390fd5b6001600083815260200190815260200160002060040160003373ffffffffffffffffffffffffffffffffffffffff1673ffffffffffffffffffffffffffffffffffffffff16815260200190815260200160002060009054906101000a900460ff161561073d576040517f08c379a0000000000000000000000000000000000000000000000000000000008152600401610734906115a9565b60405180910390fd5b60016000838152602001908152602001600020600201544210610795576040517f08c379a000000000000000000000000000000000000000000000000000000000815260040161078c90611615565b60405180910390fd5b6001600085815260200190815260200160002060030183815481106107bd576107bc611635565b5b9060005260206000200160008154809291906107d89061143d565b9190505550600180600086815260200190815260200160002060040160003373ffffffffffffffffffffffffffffffffffffffff1673ffffffffffffffffffffffffffffffffffffffff16815260200190815260200160002060006101000a81548160ff02191690831515021790555082843373ffffffffffffffffffffffffffffffffffffffff167fc32b42768a47a585121e9b8d7a2ab9d3f34c326a192dee11ee1732e3d18313f3426040516108909190611664565b60405180910390a450505050565b600260003373ffffffffffffffffffffffffffffffffffffffff1673ffffffffffffffffffffffffffffffffffffffff16815260200190815260200160002060009054906101000a900460ff161561092b576040517f08c379a0000000000000000000000000000000000000000000000000000000008152600401610922906116cb565b60405180910390fd5b6001600260003373ffffffffffffffffffffffffffffffffffffffff1673ffffffffffffffffffffffffffffffffffffffff16815260200190815260200160002060006101000a81548160ff0219169083151502179055503373ffffffffffffffffffffffffffffffffffffffff167f7f3b9effe05cfb4f31f854004de03199fd03fe56bf38a48b2aa9a9f4402d6e23426040516109c99190611664565b60405180910390a2565b60006001600083815260200190815260200160002060040160008473ffffffffffffffffffffffffffffffffffffffff1673ffffffffffffffffffffffffffffffffffffffff16815260200190815260200160002060009054906101000a900460ff16905092915050565b828054828255906000526020600020908101928215610a7a579160200282015b82811115610a79578251825591602001919060010190610a5e565b5b509050610a879190610a8b565b5090565b5b80821115610aa4576000816000905550600101610a8c565b5090565b6000604051905090565b600080fd5b600080fd5b600080fd5b600080fd5b6000601f19601f8301169050919050565b7f4e487b7100000000000000000000000000000000000000000000000000000000600052604160045260246000fd5b610b0f82610ac6565b810181811067ffffffffffffffff82111715610b2e57610b2d610ad7565b5b80604052505050565b6000610b41610aa8565b9050610b4d8282610b06565b919050565b600067ffffffffffffffff821115610b6d57610b6c610ad7565b5b610b7682610ac6565b9050602081019050919050565b82818337600083830152505050565b6000610ba5610ba084610b52565b610b37565b905082815260208101848484011115610bc157610bc0610ac1565b5b610bcc848285610b83565b509392505050565b600082601f830112610be957610be8610abc565b5b8135610bf9848260208601610b92565b91505092915050565b6000819050919050565b610c1581610c02565b8114610c2057600080fd5b50565b600081359050610c3281610c0c565b92915050565b600080600060608486031215610c5157610c50610ab2565b5b600084013567ffffffffffffffff811115610c6f57610c6e610ab7565b5b610c7b86828701610bd4565b9350506020610c8c86828701610c23565b9250506040610c9d86828701610c23565b9150509250925092565b600073ffffffffffffffffffffffffffffffffffffffff82169050919050565b6000610cd282610ca7565b9050919050565b610ce281610cc7565b8114610ced57600080fd5b50565b600081359050610cff81610cd9565b92915050565b600060208284031215610d1b57610d1a610ab2565b5b6000610d2984828501610cf0565b91505092915050565b60008115159050919050565b610d4781610d32565b82525050565b6000602082019050610d626000830184610d3e565b92915050565b600060208284031215610d7e57610d7d610ab2565b5b6000610d8c84828501610c23565b91505092915050565b600081519050919050565b600082825260208201905092915050565b60005b83811015610dcf578082015181840152602081019050610db4565b60008484015250505050565b6000610de682610d95565b610df08185610da0565b9350610e00818560208601610db1565b610e0981610ac6565b840191505092915050565b610e1d81610cc7565b82525050565b600081519050919050565b600082825260208201905092915050565b6000819050602082019050919050565b610e5881610c02565b82525050565b6000610e6a8383610e4f565b60208301905092915050565b6000602082019050919050565b6000610e8e82610e23565b610e988185610e2e565b9350610ea383610e3f565b8060005b83811015610ed4578151610ebb8882610e5e565b9750610ec683610e76565b925050600181019050610ea7565b5085935050505092915050565b610eea81610c02565b82525050565b60006080820190508181036000830152610f0a8187610ddb565b9050610f196020830186610e14565b8181036040830152610f2b8185610e83565b9050610f3a6060830184610ee1565b95945050505050565b60008060408385031215610f5a57610f59610ab2565b5b6000610f6885828601610c23565b9250506020610f7985828601610c23565b9150509250929050565b60008060408385031215610f9a57610f99610ab2565b5b6000610fa885828601610cf0565b9250506020610fb985828601610c23565b9150509250929050565b7f596f7520617265206e6f742061206d656d6265722c206675636b6f6666000000600082015250565b6000610ff9601d83610da0565b915061100482610fc3565b602082019050919050565b6000602082019050818103600083015261102881610fec565b9050919050565b7f5468657265206d7573742062652061746c656173742032206f7074696f6e7300600082015250565b6000611065601f83610da0565b91506110708261102f565b602082019050919050565b6000602082019050818103600083015261109481611058565b9050919050565b7f456e642074696d65206d75737420626520696e20746865206675747572650000600082015250565b60006110d1601e83610da0565b91506110dc8261109b565b602082019050919050565b60006020820190508181036000830152611100816110c4565b9050919050565b7f4e487b7100000000000000000000000000000000000000000000000000000000600052602260045260246000fd5b6000600282049050600182168061114e57607f821691505b60208210810361116157611160611107565b5b50919050565b60008190508160005260206000209050919050565b60006020601f8301049050919050565b600082821b905092915050565b6000600883026111c97fffffffffffffffffffffffffffffffffffffffffffffffffffffffffffffffff8261118c565b6111d3868361118c565b95508019841693508086168417925050509392505050565b6000819050919050565b600061121061120b61120684610c02565b6111eb565b610c02565b9050919050565b6000819050919050565b61122a836111f5565b61123e61123682611217565b848454611199565b825550505050565b600090565b611253611246565b61125e818484611221565b505050565b5b818110156112825761127760008261124b565b600181019050611264565b5050565b601f8211156112c75761129881611167565b6112a18461117c565b810160208510156112b0578190505b6112c46112bc8561117c565b830182611263565b50505b505050565b600082821c905092915050565b60006112ea600019846008026112cc565b1980831691505092915050565b600061130383836112d9565b9150826002028217905092915050565b61131c82610d95565b67ffffffffffffffff81111561133557611334610ad7565b5b61133f8254611136565b61134a828285611286565b600060209050601f83116001811461137d576000841561136b578287015190505b61137585826112f7565b8655506113dd565b601f19841661138b86611167565b60005b828110156113b35784890151825560018201915060208501945060208101905061138e565b868310156113d057848901516113cc601f8916826112d9565b8355505b6001600288020188555050505b505050505050565b60006040820190506113fa6000830185610ee1565b6114076020830184610ee1565b9392505050565b7f4e487b7100000000000000000000000000000000000000000000000000000000600052601160045260246000fd5b600061144882610c02565b91507fffffffffffffffffffffffffffffffffffffffffffffffffffffffffffffffff820361147a5761147961140e565b5b600182019050919050565b7f566f746520646f6573206e6f7420657869737400000000000000000000000000600082015250565b60006114bb601383610da0565b91506114c682611485565b602082019050919050565b600060208201905081810360008301526114ea816114ae565b9050919050565b7f4f7074696f6e20646f6573206e6f742065786973740000000000000000000000600082015250565b6000611527601583610da0565b9150611532826114f1565b602082019050919050565b600060208201905081810360008301526115568161151a565b9050919050565b7f596f75206861766520616c726561647920766f74656400000000000000000000600082015250565b6000611593601683610da0565b915061159e8261155d565b602082019050919050565b600060208201905081810360008301526115c281611586565b9050919050565b7f566f74696e672068617320656e64656420203a28000000000000000000000000600082015250565b60006115ff601483610da0565b915061160a826115c9565b602082019050919050565b6000602082019050818103600083015261162e816115f2565b9050919050565b7f4e487b7100000000000000000000000000000000000000000000000000000000600052603260045260246000fd5b60006020820190506116796000830184610ee1565b92915050565b7f596f752061726520616c72656164792061206d656d6265720000000000000000600082015250565b60006116b5601883610da0565b91506116c08261167f565b602082019050919050565b600060208201905081810360008301526116e4816116a8565b905091905056fea264697066735822122050c80ff0ec9faf4a3a16c63f3e2828b3e8f89b78e24297ac141716a5bc74698164736f6c634300081c0033",
  "linkReferences": {},
  "deployedLinkReferences": {}
}